{
  "address": "0x9165C2D57F825CFbF8306EB97eEe6E2eAd56adc7",
  "abi": [
    {
      "inputs": [
        {
          "internalType": "address",
          "name": "_salesManager",
          "type": "address"
        },
        {
          "internalType": "address",
          "name": "_feeTo",
          "type": "address"
        },
        {
          "internalType": "address",
          "name": "_feeCurrency",
          "type": "address"
        },
        {
          "internalType": "address",
          "name": "_multiSigWallet",
          "type": "address"
        },
        {
          "internalType": "address",
          "name": "_assetManager",
          "type": "address"
        }
      ],
      "stateMutability": "nonpayable",
      "type": "constructor"
    },
    {
      "anonymous": false,
      "inputs": [
        {
          "indexed": true,
          "internalType": "address",
          "name": "_setter",
          "type": "address"
        },
        {
          "indexed": true,
          "internalType": "address",
          "name": "_admin",
          "type": "address"
        }
      ],
      "name": "AddAdmin",
      "type": "event"
    },
    {
      "anonymous": false,
      "inputs": [
        {
          "indexed": true,
          "internalType": "uint256",
          "name": "_loanId",
          "type": "uint256"
        },
        {
          "indexed": false,
          "internalType": "address",
          "name": "_sender",
          "type": "address"
        },
        {
          "indexed": false,
          "internalType": "address",
          "name": "_currency",
          "type": "address"
        },
        {
          "indexed": false,
          "internalType": "uint256",
          "name": "_amount",
          "type": "uint256"
        }
      ],
      "name": "InstallmentPaid",
      "type": "event"
    },
    {
      "anonymous": false,
      "inputs": [
        {
          "indexed": true,
          "internalType": "uint256",
          "name": "_loanId",
          "type": "uint256"
        },
        {
          "indexed": true,
          "internalType": "address",
          "name": "_to",
          "type": "address"
        },
        {
          "indexed": false,
          "internalType": "address",
          "name": "_fundCurreny",
          "type": "address"
        },
        {
          "indexed": false,
          "internalType": "uint256",
          "name": "_fundAmount",
          "type": "uint256"
        }
      ],
      "name": "LoanApproved",
      "type": "event"
    },
    {
      "anonymous": false,
      "inputs": [
        {
          "indexed": true,
          "internalType": "uint256",
          "name": "_loanId",
          "type": "uint256"
        },
        {
          "indexed": false,
          "internalType": "address",
          "name": "_sender",
          "type": "address"
        }
      ],
      "name": "LoanCanceled",
      "type": "event"
    },
    {
      "anonymous": false,
      "inputs": [
        {
          "indexed": true,
          "internalType": "uint256",
          "name": "loanId",
          "type": "uint256"
        },
        {
          "indexed": true,
          "internalType": "address",
          "name": "owner",
          "type": "address"
        }
      ],
      "name": "LoanCreated",
      "type": "event"
    },
    {
      "anonymous": false,
      "inputs": [
        {
          "indexed": true,
          "internalType": "uint256",
          "name": "_loandId",
          "type": "uint256"
        }
      ],
      "name": "LoanDefaulted",
      "type": "event"
    },
    {
      "anonymous": false,
      "inputs": [
        {
          "indexed": true,
          "internalType": "uint256",
          "name": "_loanId",
          "type": "uint256"
        },
        {
          "indexed": false,
          "internalType": "address",
          "name": "_salesManager",
          "type": "address"
        }
      ],
      "name": "LoanLiquidation",
      "type": "event"
    },
    {
      "anonymous": false,
      "inputs": [
        {
          "indexed": true,
          "internalType": "uint256",
          "name": "_loanId",
          "type": "uint256"
        },
        {
          "indexed": false,
          "internalType": "uint256",
          "name": "_soldAmount",
          "type": "uint256"
        },
        {
          "indexed": false,
          "internalType": "uint256",
          "name": "_finalDebt",
          "type": "uint256"
        }
      ],
      "name": "LoanPostLiquidation",
      "type": "event"
    },
    {
      "anonymous": false,
      "inputs": [
        {
          "indexed": false,
          "internalType": "uint256",
          "name": "_loanId",
          "type": "uint256"
        },
        {
          "indexed": false,
          "internalType": "address",
          "name": "_agent",
          "type": "address"
        }
      ],
      "name": "LoanRejected",
      "type": "event"
    },
    {
      "anonymous": false,
      "inputs": [
        {
          "indexed": true,
          "internalType": "uint256",
          "name": "_loanId",
          "type": "uint256"
        },
        {
          "indexed": true,
          "internalType": "address",
          "name": "_sender",
          "type": "address"
        },
        {
          "indexed": false,
          "internalType": "bool",
          "name": "_accepted",
          "type": "bool"
        }
      ],
      "name": "NFTRelayed",
      "type": "event"
    },
    {
      "anonymous": false,
      "inputs": [
        {
          "indexed": true,
          "internalType": "uint256",
          "name": "_loanId",
          "type": "uint256"
        },
        {
          "indexed": false,
          "internalType": "address",
          "name": "_to",
          "type": "address"
        }
      ],
      "name": "NFTWithdrew",
      "type": "event"
    },
    {
      "anonymous": false,
      "inputs": [
        {
          "indexed": true,
          "internalType": "address",
          "name": "previousOwner",
          "type": "address"
        },
        {
          "indexed": true,
          "internalType": "address",
          "name": "newOwner",
          "type": "address"
        }
      ],
      "name": "OwnershipTransferred",
      "type": "event"
    },
    {
      "anonymous": false,
      "inputs": [
        {
          "indexed": true,
          "internalType": "address",
          "name": "_setter",
          "type": "address"
        },
        {
          "indexed": true,
          "internalType": "address",
          "name": "_admin",
          "type": "address"
        }
      ],
      "name": "RemoveAdmin",
      "type": "event"
    },
    {
      "anonymous": false,
      "inputs": [
        {
          "indexed": true,
          "internalType": "uint256",
          "name": "_loanId",
          "type": "uint256"
        },
        {
          "indexed": false,
          "internalType": "uint256",
          "name": "_amount",
          "type": "uint256"
        }
      ],
      "name": "RestWithdrew",
      "type": "event"
    },
    {
      "anonymous": false,
      "inputs": [
        {
          "indexed": false,
          "internalType": "address",
          "name": "_feeTo",
          "type": "address"
        },
        {
          "indexed": false,
          "internalType": "uint256",
          "name": "_lateFee",
          "type": "uint256"
        },
        {
          "indexed": false,
          "internalType": "uint256",
          "name": "_penaltyFee",
          "type": "uint256"
        },
        {
          "indexed": false,
          "internalType": "address",
          "name": "_salesManager",
          "type": "address"
        },
        {
          "indexed": false,
          "internalType": "address",
          "name": "_assetManager",
          "type": "address"
        }
      ],
      "name": "SettingsUpdate",
      "type": "event"
    },
    {
      "anonymous": false,
      "inputs": [
        {
          "indexed": true,
          "internalType": "address",
          "name": "previousOwner",
          "type": "address"
        },
        {
          "indexed": true,
          "internalType": "address",
          "name": "newOwner",
          "type": "address"
        }
      ],
      "name": "SuperOwnershipTransferred",
      "type": "event"
    },
    {
      "inputs": [],
      "name": "GRACE_PERIOD",
      "outputs": [
        {
          "internalType": "uint256",
          "name": "",
          "type": "uint256"
        }
      ],
      "stateMutability": "view",
      "type": "function"
    },
    {
      "inputs": [],
      "name": "MAX_SLIPPAGE",
      "outputs": [
        {
          "internalType": "uint256",
          "name": "",
          "type": "uint256"
        }
      ],
      "stateMutability": "view",
      "type": "function"
    },
    {
      "inputs": [],
      "name": "TENOR_UNIT",
      "outputs": [
        {
          "internalType": "uint256",
          "name": "",
          "type": "uint256"
        }
      ],
      "stateMutability": "view",
      "type": "function"
    },
    {
      "inputs": [
        {
          "internalType": "address",
          "name": "_admin",
          "type": "address"
        }
      ],
      "name": "addAdmin",
      "outputs": [],
      "stateMutability": "nonpayable",
      "type": "function"
    },
    {
      "inputs": [
        {
          "internalType": "uint256",
          "name": "_loanId",
          "type": "uint256"
        },
        {
          "internalType": "uint256",
          "name": "_amount",
          "type": "uint256"
        },
        {
          "internalType": "address",
          "name": "_agent",
          "type": "address"
        }
      ],
      "name": "approveLoan",
      "outputs": [],
      "stateMutability": "nonpayable",
      "type": "function"
    },
    {
      "inputs": [],
      "name": "assetManager",
      "outputs": [
        {
          "internalType": "address",
          "name": "",
          "type": "address"
        }
      ],
      "stateMutability": "view",
      "type": "function"
    },
    {
      "inputs": [
        {
          "internalType": "uint256",
          "name": "_loanId",
          "type": "uint256"
        }
      ],
      "name": "cancelLoan",
      "outputs": [],
      "stateMutability": "nonpayable",
      "type": "function"
    },
    {
      "inputs": [
        {
          "internalType": "uint16[]",
          "name": "_loanRules",
          "type": "uint16[]"
        },
        {
          "internalType": "address[]",
          "name": "_currencies",
          "type": "address[]"
        },
        {
          "internalType": "address[]",
          "name": "nftAddressArray",
          "type": "address[]"
        },
        {
          "internalType": "uint256[]",
          "name": "_amounts",
          "type": "uint256[]"
        },
        {
          "internalType": "uint256[]",
          "name": "nftTokenIdArray",
          "type": "uint256[]"
        },
        {
          "internalType": "enum TribeOneHelper.TokenType[]",
          "name": "nftTokenTypeArray",
          "type": "uint8[]"
        }
      ],
      "name": "createLoan",
      "outputs": [],
      "stateMutability": "payable",
      "type": "function"
    },
    {
      "inputs": [
        {
          "internalType": "uint256",
          "name": "_loanId",
          "type": "uint256"
        }
      ],
      "name": "expectedLastPaymentTime",
      "outputs": [
        {
          "internalType": "uint256",
          "name": "",
          "type": "uint256"
        }
      ],
      "stateMutability": "view",
      "type": "function"
    },
    {
      "inputs": [],
      "name": "feeCurrency",
      "outputs": [
        {
          "internalType": "address",
          "name": "",
          "type": "address"
        }
      ],
      "stateMutability": "view",
      "type": "function"
    },
    {
      "inputs": [],
      "name": "feeTo",
      "outputs": [
        {
          "internalType": "address",
          "name": "",
          "type": "address"
        }
      ],
      "stateMutability": "view",
      "type": "function"
    },
    {
      "inputs": [
        {
          "internalType": "uint256",
          "name": "_loanId",
          "type": "uint256"
        }
      ],
      "name": "finalDebtAndPenalty",
      "outputs": [
        {
          "internalType": "uint256",
          "name": "",
          "type": "uint256"
        }
      ],
      "stateMutability": "view",
      "type": "function"
    },
    {
      "inputs": [
        {
          "internalType": "uint256",
          "name": "_loanId",
          "type": "uint256"
        }
      ],
      "name": "getBackFund",
      "outputs": [],
      "stateMutability": "payable",
      "type": "function"
    },
    {
      "inputs": [
        {
          "internalType": "uint256",
          "name": "_loanId",
          "type": "uint256"
        }
      ],
      "name": "getCollateralAsset",
      "outputs": [
        {
          "internalType": "address",
          "name": "_token",
          "type": "address"
        },
        {
          "internalType": "uint256",
          "name": "_amount",
          "type": "uint256"
        }
      ],
      "stateMutability": "view",
      "type": "function"
    },
    {
      "inputs": [
        {
          "internalType": "uint256",
          "name": "_loanId",
          "type": "uint256"
        }
      ],
      "name": "getLoanAsset",
      "outputs": [
        {
          "internalType": "address",
          "name": "_token",
          "type": "address"
        },
        {
          "internalType": "uint256",
          "name": "_amount",
          "type": "uint256"
        }
      ],
      "stateMutability": "view",
      "type": "function"
    },
    {
      "inputs": [
        {
          "internalType": "uint256",
          "name": "_loanId",
          "type": "uint256"
        }
      ],
      "name": "getLoanNFTCount",
      "outputs": [
        {
          "internalType": "uint256",
          "name": "",
          "type": "uint256"
        }
      ],
      "stateMutability": "view",
      "type": "function"
    },
    {
      "inputs": [
        {
          "internalType": "uint256",
          "name": "_loanId",
          "type": "uint256"
        },
        {
          "internalType": "uint256",
          "name": "_nftItemId",
          "type": "uint256"
        }
      ],
      "name": "getLoanNFTItem",
      "outputs": [
        {
          "internalType": "address",
          "name": "_nftAddress",
          "type": "address"
        },
        {
          "internalType": "uint256",
          "name": "_tokenId",
          "type": "uint256"
        }
      ],
      "stateMutability": "view",
      "type": "function"
    },
    {
      "inputs": [
        {
          "internalType": "uint256",
          "name": "_loanId",
          "type": "uint256"
        }
      ],
      "name": "getLoanRules",
      "outputs": [
        {
          "internalType": "uint16",
          "name": "tenor",
          "type": "uint16"
        },
        {
          "internalType": "uint16",
          "name": "LTV",
          "type": "uint16"
        },
        {
          "internalType": "uint16",
          "name": "interest",
          "type": "uint16"
        }
      ],
      "stateMutability": "view",
      "type": "function"
    },
    {
      "inputs": [
        {
          "internalType": "address",
          "name": "_admin",
          "type": "address"
        }
      ],
      "name": "isAdmin",
      "outputs": [
        {
          "internalType": "bool",
          "name": "",
          "type": "bool"
        }
      ],
      "stateMutability": "view",
      "type": "function"
    },
    {
      "inputs": [],
      "name": "lateFee",
      "outputs": [
        {
          "internalType": "uint256",
          "name": "",
          "type": "uint256"
        }
      ],
      "stateMutability": "view",
      "type": "function"
    },
    {
      "inputs": [],
      "name": "loanIds",
      "outputs": [
        {
          "internalType": "uint256",
          "name": "_value",
          "type": "uint256"
        }
      ],
      "stateMutability": "view",
      "type": "function"
    },
    {
      "inputs": [
        {
          "internalType": "uint256",
          "name": "",
          "type": "uint256"
        }
      ],
      "name": "loans",
      "outputs": [
        {
          "internalType": "uint256",
          "name": "fundAmount",
          "type": "uint256"
        },
        {
          "internalType": "uint256",
          "name": "paidAmount",
          "type": "uint256"
        },
        {
          "internalType": "uint256",
          "name": "loanStart",
          "type": "uint256"
        },
        {
          "internalType": "uint256",
          "name": "postTime",
          "type": "uint256"
        },
        {
          "internalType": "uint256",
          "name": "restAmount",
          "type": "uint256"
        },
        {
          "internalType": "address",
          "name": "borrower",
          "type": "address"
        },
        {
          "internalType": "uint8",
          "name": "nrOfPenalty",
          "type": "uint8"
        },
        {
          "internalType": "uint8",
          "name": "passedTenors",
          "type": "uint8"
        },
        {
          "components": [
            {
              "internalType": "uint256",
              "name": "amount",
              "type": "uint256"
            },
            {
              "internalType": "address",
              "name": "currency",
              "type": "address"
            }
          ],
          "internalType": "struct TribeOne.Asset",
          "name": "loanAsset",
          "type": "tuple"
        },
        {
          "components": [
            {
              "internalType": "uint256",
              "name": "amount",
              "type": "uint256"
            },
            {
              "internalType": "address",
              "name": "currency",
              "type": "address"
            }
          ],
          "internalType": "struct TribeOne.Asset",
          "name": "collateralAsset",
          "type": "tuple"
        },
        {
          "internalType": "enum TribeOne.Status",
          "name": "status",
          "type": "uint8"
        },
        {
          "components": [
            {
              "internalType": "uint16",
              "name": "tenor",
              "type": "uint16"
            },
            {
              "internalType": "uint16",
              "name": "LTV",
              "type": "uint16"
            },
            {
              "internalType": "uint16",
              "name": "interest",
              "type": "uint16"
            }
          ],
          "internalType": "struct TribeOne.LoanRules",
          "name": "loanRules",
          "type": "tuple"
        }
      ],
      "stateMutability": "view",
      "type": "function"
    },
    {
      "inputs": [
        {
          "internalType": "uint256[]",
          "name": "_loanIds",
          "type": "uint256[]"
        },
        {
          "internalType": "address",
          "name": "_currency",
          "type": "address"
        }
      ],
      "name": "lockRestAmount",
      "outputs": [],
      "stateMutability": "nonpayable",
      "type": "function"
    },
    {
      "inputs": [
        {
          "internalType": "address",
          "name": "",
          "type": "address"
        },
        {
          "internalType": "address",
          "name": "",
          "type": "address"
        },
        {
          "internalType": "uint256[]",
          "name": "",
          "type": "uint256[]"
        },
        {
          "internalType": "uint256[]",
          "name": "",
          "type": "uint256[]"
        },
        {
          "internalType": "bytes",
          "name": "",
          "type": "bytes"
        }
      ],
      "name": "onERC1155BatchReceived",
      "outputs": [
        {
          "internalType": "bytes4",
          "name": "",
          "type": "bytes4"
        }
      ],
      "stateMutability": "nonpayable",
      "type": "function"
    },
    {
      "inputs": [
        {
          "internalType": "address",
          "name": "",
          "type": "address"
        },
        {
          "internalType": "address",
          "name": "",
          "type": "address"
        },
        {
          "internalType": "uint256",
          "name": "",
          "type": "uint256"
        },
        {
          "internalType": "uint256",
          "name": "",
          "type": "uint256"
        },
        {
          "internalType": "bytes",
          "name": "",
          "type": "bytes"
        }
      ],
      "name": "onERC1155Received",
      "outputs": [
        {
          "internalType": "bytes4",
          "name": "",
          "type": "bytes4"
        }
      ],
      "stateMutability": "nonpayable",
      "type": "function"
    },
    {
      "inputs": [
        {
          "internalType": "address",
          "name": "",
          "type": "address"
        },
        {
          "internalType": "address",
          "name": "",
          "type": "address"
        },
        {
          "internalType": "uint256",
          "name": "",
          "type": "uint256"
        },
        {
          "internalType": "bytes",
          "name": "",
          "type": "bytes"
        }
      ],
      "name": "onERC721Received",
      "outputs": [
        {
          "internalType": "bytes4",
          "name": "",
          "type": "bytes4"
        }
      ],
      "stateMutability": "nonpayable",
      "type": "function"
    },
    {
      "inputs": [],
      "name": "owner",
      "outputs": [
        {
          "internalType": "address",
          "name": "",
          "type": "address"
        }
      ],
      "stateMutability": "view",
      "type": "function"
    },
    {
      "inputs": [
        {
          "internalType": "uint256",
          "name": "_loanId",
          "type": "uint256"
        },
        {
          "internalType": "uint256",
          "name": "_amount",
          "type": "uint256"
        }
      ],
      "name": "payInstallment",
      "outputs": [],
      "stateMutability": "payable",
      "type": "function"
    },
    {
      "inputs": [],
      "name": "penaltyFee",
      "outputs": [
        {
          "internalType": "uint256",
          "name": "",
          "type": "uint256"
        }
      ],
      "stateMutability": "view",
      "type": "function"
    },
    {
      "inputs": [
        {
          "internalType": "uint256",
          "name": "_loanId",
          "type": "uint256"
        },
        {
          "internalType": "uint256",
          "name": "_amount",
          "type": "uint256"
        }
      ],
      "name": "postLiquidation",
      "outputs": [],
      "stateMutability": "payable",
      "type": "function"
    },
    {
      "inputs": [
        {
          "internalType": "uint256",
          "name": "_loanId",
          "type": "uint256"
        },
        {
          "internalType": "address",
          "name": "_agent",
          "type": "address"
        },
        {
          "internalType": "bool",
          "name": "_accepted",
          "type": "bool"
        }
      ],
      "name": "relayNFT",
      "outputs": [],
      "stateMutability": "payable",
      "type": "function"
    },
    {
      "inputs": [
        {
          "internalType": "address",
          "name": "_admin",
          "type": "address"
        }
      ],
      "name": "removeAdmin",
      "outputs": [],
      "stateMutability": "nonpayable",
      "type": "function"
    },
    {
      "inputs": [],
      "name": "renounceOwnership",
      "outputs": [],
      "stateMutability": "nonpayable",
      "type": "function"
    },
    {
      "inputs": [
        {
          "internalType": "address",
          "name": "_token",
          "type": "address"
        }
      ],
      "name": "revokeAllowanceForAssetManager",
      "outputs": [],
      "stateMutability": "nonpayable",
      "type": "function"
    },
    {
      "inputs": [],
      "name": "salesManager",
      "outputs": [
        {
          "internalType": "address",
          "name": "",
          "type": "address"
        }
      ],
      "stateMutability": "view",
      "type": "function"
    },
    {
      "inputs": [
        {
          "internalType": "address",
          "name": "_token",
          "type": "address"
        }
      ],
      "name": "setAllowanceForAssetManager",
      "outputs": [],
      "stateMutability": "nonpayable",
      "type": "function"
    },
    {
      "inputs": [
        {
          "internalType": "uint256",
          "name": "_loanId",
          "type": "uint256"
        }
      ],
      "name": "setLoanDefaulted",
      "outputs": [],
      "stateMutability": "nonpayable",
      "type": "function"
    },
    {
      "inputs": [
        {
          "internalType": "uint256",
          "name": "_loanId",
          "type": "uint256"
        }
      ],
      "name": "setLoanLiquidation",
      "outputs": [],
      "stateMutability": "nonpayable",
      "type": "function"
    },
    {
      "inputs": [
        {
          "internalType": "address",
          "name": "_feeTo",
          "type": "address"
        },
        {
          "internalType": "uint256",
          "name": "_lateFee",
          "type": "uint256"
        },
        {
          "internalType": "uint256",
          "name": "_penaltyFee",
          "type": "uint256"
        },
        {
          "internalType": "address",
          "name": "_salesManager",
          "type": "address"
        },
        {
          "internalType": "address",
          "name": "_assetManager",
          "type": "address"
        }
      ],
      "name": "setSettings",
      "outputs": [],
      "stateMutability": "nonpayable",
      "type": "function"
    },
    {
      "inputs": [],
      "name": "superOwner",
      "outputs": [
        {
          "internalType": "address",
          "name": "",
          "type": "address"
        }
      ],
      "stateMutability": "view",
      "type": "function"
    },
    {
      "inputs": [
        {
          "internalType": "bytes4",
          "name": "interfaceId",
          "type": "bytes4"
        }
      ],
      "name": "supportsInterface",
      "outputs": [
        {
          "internalType": "bool",
          "name": "",
          "type": "bool"
        }
      ],
      "stateMutability": "view",
      "type": "function"
    },
    {
      "inputs": [
        {
          "internalType": "uint256",
          "name": "_loanId",
          "type": "uint256"
        }
      ],
      "name": "totalDebt",
      "outputs": [
        {
          "internalType": "uint256",
          "name": "",
          "type": "uint256"
        }
      ],
      "stateMutability": "view",
      "type": "function"
    },
    {
      "inputs": [
        {
          "internalType": "address",
          "name": "newOwner",
          "type": "address"
        }
      ],
      "name": "transferOwnership",
      "outputs": [],
      "stateMutability": "nonpayable",
      "type": "function"
    },
    {
      "inputs": [
        {
          "internalType": "address",
          "name": "newSuperOwner",
          "type": "address"
        }
      ],
      "name": "transferSuperOwnerShip",
      "outputs": [],
      "stateMutability": "nonpayable",
      "type": "function"
    },
    {
      "inputs": [
        {
          "internalType": "uint256",
          "name": "_loanId",
          "type": "uint256"
        }
      ],
      "name": "withdrawNFT",
      "outputs": [],
      "stateMutability": "nonpayable",
      "type": "function"
    },
    {
      "stateMutability": "payable",
      "type": "receive"
    }
  ],
  "transactionHash": "0xb8a1f4bd4d46dc1d8ff014240113628af2e5ef80118dad0c42fce8322de8ddfc",
  "args": [
    "0x6C641CE6A7216F12d28692f9d8b2BDcdE812eD2b",
    "0x6C641CE6A7216F12d28692f9d8b2BDcdE812eD2b",
    "0xd8f50554055Be0276fa29F40Fb3227FE96B5D6c2",
    "0x8Ff48A7EAE9243486212F4a024C7e2fff563b131",
    "0x4Ea17a52482C1d45cC62617D32DA2A4349e18a4b"
  ],
  "solcInputHash": "343c14e48fe02db26db133031df7b26c",
  "bytecode": "0x60a06040523480156200001157600080fd5b506040516200510f3803806200510f833981016040819052620000349162000246565b60006200004062000178565b600080546001600160a01b0383166001600160a01b03199182168117835560018054909216811790915560405192935091600080516020620050ef833981519152908290a35060016003556001600160a01b03851615801590620000ac57506001600160a01b03841615155b8015620000c157506001600160a01b03831615155b8015620000d657506001600160a01b03821615155b8015620000eb57506001600160a01b03811615155b620001135760405162461bcd60e51b81526004016200010a9062000341565b60405180910390fd5b600680546001600160a01b038088166001600160a01b0319928316179092556007805484841690831617905560088054928716929091169190911790556001600160601b0319606084901b166080526200016d826200017c565b505050505062000378565b3390565b6200018662000178565b6001546001600160a01b03908116911614620001b65760405162461bcd60e51b81526004016200010a90620002fb565b6001600160a01b038116620001df5760405162461bcd60e51b81526004016200010a90620002b5565b600080546040516001600160a01b0380851693921691600080516020620050ef83398151915291a3600080546001600160a01b0319166001600160a01b0392909216919091179055565b80516001600160a01b03811681146200024157600080fd5b919050565b600080600080600060a086880312156200025e578081fd5b620002698662000229565b9450620002796020870162000229565b9350620002896040870162000229565b9250620002996060870162000229565b9150620002a96080870162000229565b90509295509295909350565b60208082526026908201527f4f776e61626c653a206e6577206f776e657220697320746865207a65726f206160408201526564647265737360d01b606082015260800190565b60208082526026908201527f4f776e61626c653a2063616c6c6572206973206e6f74207468652073757065726040820152651037bbb732b960d11b606082015260800190565b60208082526016908201527f54726962654f6e653a205a45524f206164647265737300000000000000000000604082015260600190565b60805160601c614d3c620003b360003960008181610c1601528181610cce0152818161208701528181612f9801526130640152614d3c6000f3fe6080604052600436106102765760003560e01c806387dcd2b61161014f578063bec57406116100c1578063df9eb9381161007a578063df9eb93814610706578063e1ec3c6814610726578063f23a6e611461075e578063f2fde38b1461077e578063f87c59cc1461079e578063f9759518146107b15761027d565b8063bec5740614610669578063bf79b7421461067c578063c1a287e21461069c578063c22f4610146106b1578063c5b6599f146106d1578063c8f87ccb146106e65761027d565b8063a3ada2d711610113578063a3ada2d7146105cc578063af8747c2146105e1578063b0aa6808146105f4578063b112ea6e14610609578063bc197c8114610629578063bdbfa3de146106495761027d565b806387dcd2b61461054d5780638da5cb5b1461056257806392bc388c1461057757806394217ad1146105975780639695858f146105ac5761027d565b80633a7caf20116101e8578063552b9078116101ac578063552b90781461048a5780636028ce9f146104aa57806370480275146104d8578063715018a6146104f8578063724732a81461050d5780637dc830d81461052d5761027d565b80633a7caf20146104095780633dc10ad4146104385780633f4de62f1461044d57806346402a79146104625780634e248cda146104755761027d565b8063150b7a021161023a578063150b7a021461033c5780631614b251146103695780631785f53c1461037c57806321d0393a1461039c57806324d7806c146103bc578063265e9a4c146103dc5761027d565b8063017e7e581461028257806301ffc9a7146102ad578063023245d7146102da5780630309db4a146102fc578063056760cf1461031c5761027d565b3661027d57005b600080fd5b34801561028e57600080fd5b506102976107c6565b6040516102a49190613fb8565b60405180910390f35b3480156102b957600080fd5b506102cd6102c8366004613e37565b6107d5565b6040516102a491906140ac565b3480156102e657600080fd5b506102fa6102f5366004613e81565b610802565b005b34801561030857600080fd5b506102fa610317366004613e81565b610844565b34801561032857600080fd5b506102fa610337366004613adb565b610a4c565b34801561034857600080fd5b5061035c610357366004613b9b565b610b03565b6040516102a491906140b7565b6102fa610377366004613e81565b610b13565b34801561038857600080fd5b506102fa610397366004613adb565b610d86565b3480156103a857600080fd5b506102fa6103b7366004613ef9565b610e2a565b3480156103c857600080fd5b506102cd6103d7366004613adb565b6111f0565b3480156103e857600080fd5b506103fc6103f7366004613e81565b61120e565b6040516102a491906149c6565b34801561041557600080fd5b50610429610424366004613e81565b611272565b6040516102a4939291906149a8565b34801561044457600080fd5b506103fc6112a1565b34801561045957600080fd5b506103fc6112a7565b6102fa610470366004613ed8565b6112ad565b34801561048157600080fd5b506103fc6116ba565b34801561049657600080fd5b506102fa6104a5366004613adb565b6116c1565b3480156104b657600080fd5b506104ca6104c5366004613ed8565b611713565b6040516102a4929190614035565b3480156104e457600080fd5b506102fa6104f3366004613adb565b6117a7565b34801561050457600080fd5b506102fa61184f565b34801561051957600080fd5b506102fa610528366004613dc9565b611908565b34801561053957600080fd5b506103fc610548366004613e81565b611a40565b34801561055957600080fd5b50610297611ad9565b34801561056e57600080fd5b50610297611ae8565b34801561058357600080fd5b506102fa610592366004613adb565b611af7565b3480156105a357600080fd5b50610297611b45565b3480156105b857600080fd5b506104ca6105c7366004613e81565b611b54565b3480156105d857600080fd5b50610297611b7b565b6102fa6105ef366004613e99565b611b8a565b34801561060057600080fd5b50610297612085565b34801561061557600080fd5b506104ca610624366004613e81565b6120a9565b34801561063557600080fd5b5061035c610644366004613af5565b6120d0565b34801561065557600080fd5b506102fa610664366004613e81565b6120e1565b6102fa610677366004613ed8565b6121e0565b34801561068857600080fd5b506102fa610697366004613c64565b612462565b3480156106a857600080fd5b506103fc6125b0565b3480156106bd57600080fd5b506103fc6106cc366004613e81565b6125b7565b3480156106dd57600080fd5b506103fc612600565b3480156106f257600080fd5b506102fa610701366004613e81565b612606565b34801561071257600080fd5b506103fc610721366004613e81565b6126ed565b34801561073257600080fd5b50610746610741366004613e81565b612702565b6040516102a49c9b9a999897969594939291906149f4565b34801561076a57600080fd5b5061035c610779366004613c01565b6127d2565b34801561078a57600080fd5b506102fa610799366004613adb565b6127e3565b6102fa6107ac366004613cba565b612899565b3480156107bd57600080fd5b506103fc612eae565b6008546001600160a01b031681565b60006001600160e01b03198216630271189760e51b14806107fa57506107fa82612eb4565b90505b919050565b6002600354141561082e5760405162461bcd60e51b815260040161082590614860565b60405180910390fd5b600260035561083c81612ecd565b506001600355565b600260035414156108675760405162461bcd60e51b815260040161082590614860565b600260035560008181526004602052604090206008600a82015460ff16600d8111156108a357634e487b7160e01b600052602160045260246000fd5b146108c05760405162461bcd60e51b8152600401610825906145e1565b42621275006108ce84611a40565b6108d89190614b0c565b106108f55760405162461bcd60e51b81526004016108259061491d565b600a8101805460ff19166009179055600c81015460005b818110156109fc57600083600c01828154811061093957634e487b7160e01b600052603260045260246000fd5b6000918252602082200154600d860180546001600160a01b039092169350908490811061097657634e487b7160e01b600052603260045260246000fd5b906000526020600020015490506109e78230600660009054906101000a90046001600160a01b031688600e0187815481106109c157634e487b7160e01b600052603260045260246000fd5b90600052602060002090602091828204019190069054906101000a900460ff1685613185565b505080806109f490614cb1565b91505061090c565b5060065460405184917fff6f4651f4fd73446c5a7a4c5eaa2b05686ad05806a08db92d320fd0e4df77ef91610a3a916001600160a01b031690613fb8565b60405180910390a25050600160035550565b610a54613281565b6001546001600160a01b03908116911614610a815760405162461bcd60e51b815260040161082590614564565b6001600160a01b038116610aa75760405162461bcd60e51b8152600401610825906143b1565b6001546040516001600160a01b038084169216907f2dbe92691ce41ad35e3ca5031d41591cfae98f29ec067b6c823153a1d8b2476d90600090a3600180546001600160a01b0319166001600160a01b0392909216919091179055565b630a85bd0160e11b949350505050565b600081815260046020526040902060058101546001600160a01b0316610b37613281565b6001600160a01b031614610b5d5760405162461bcd60e51b8152600401610825906144b6565b600a8082015460ff16600d811115610b8557634e487b7160e01b600052602160045260246000fd5b14610ba25760405162461bcd60e51b8152600401610825906145e1565b42621275008260030154610bb69190614b0c565b11610bd35760405162461bcd60e51b815260040161082590614489565b600481015480610bf55760405162461bcd60e51b8152600401610825906141e8565b60095415610cfe5760008260050160149054906101000a900460ff1660ff167f00000000000000000000000000000000000000000000000000000000000000006001600160a01b031663313ce5676040518163ffffffff1660e01b815260040160206040518083038186803b158015610c6d57600080fd5b505afa158015610c81573d6000803e3d6000fd5b505050506040513d601f19601f82011682018060405250810190610ca59190613f24565b610cb090600a614baf565b600954610cbd9190614c7b565b610cc79190614c7b565b9050610cfc7f0000000000000000000000000000000000000000000000000000000000000000610cf5613281565b3084613285565b505b600a8201805460ff1916600b17905560078201546001600160a01b031680610d3657610d31610d2b613281565b83613375565b610d48565b610d4881610d42613281565b84613407565b837f54c34e2467de11ba056e6efc24455400a417eee8270ce874c1b548f0974ed59483604051610d7891906149c6565b60405180910390a250505050565b610d8e613281565b6001546001600160a01b03908116911614610dbb5760405162461bcd60e51b815260040161082590614564565b610dc4816111f0565b610de05760405162461bcd60e51b8152600401610825906148e6565b6001600160a01b038116600081815260026020526040808220805460ff191690555133917f148da362aaafc6bbf0e0b77d62428bcd324bcf9785839aa07881d6c78d295df191a350565b610e32613281565b6001600160a01b0316610e43611ae8565b6001600160a01b03161480610e7d575060026000610e5f613281565b6001600160a01b0316815260208101919091526040016000205460ff165b610e995760405162461bcd60e51b815260040161082590614618565b60026003541415610ebc5760405162461bcd60e51b815260040161082590614860565b600260035560008381526004602052604090206001600a82015460ff16600d811115610ef857634e487b7160e01b600052602160045260246000fd5b14610f155760405162461bcd60e51b81526004016108259061437a565b6001600160a01b038216610f3b5760405162461bcd60e51b81526004016108259061476a565b8054600b82015462010000900461ffff166000610f5b83836101f46134ed565b905080861115610f7d5760405162461bcd60e51b81526004016108259061466a565b828611610fda57600a8401805460ff1916600d179055610f9c87613535565b7fe7ba502e07e0f90def7143baaace80ef86ce4d26899461424511082ed678499f8786604051610fcd9291906149cf565b60405180910390a16111e2565b610fe3336111f0565b61108d5760078054908501546040516384bc210960e01b81526001600160a01b03928316926384bc21099261101f929116908a90600401614035565b602060405180830381600087803b15801561103957600080fd5b505af115801561104d573d6000803e3d6000fd5b505050506040513d601f19601f820116820180604052508101906110719190613e1b565b61108d5760405162461bcd60e51b815260040161082590614452565b600a8401805460ff19166002179055600784015484546001600160a01b03909116906110b99088614c9a565b60068601556001600160a01b03811661113557600754604051636f59503f60e01b81526001600160a01b0390911690636f59503f906110fe9089908b90600401614035565b600060405180830381600087803b15801561111857600080fd5b505af115801561112c573d6000803e3d6000fd5b5050505061119c565b6007546040516324b28b1560e11b81526001600160a01b0390911690634965162a9061116990899085908c90600401613fcc565b600060405180830381600087803b15801561118357600080fd5b505af1158015611197573d6000803e3d6000fd5b505050505b856001600160a01b0316887f5a2849283d692c6535b240a67d3be009f99e4c8c66a13e5238ecfe2ecd9e8f65838a6040516111d8929190614035565b60405180910390a3505b505060016003555050505050565b6001600160a01b031660009081526002602052604090205460ff1690565b600081815260046020526040812060018101548261122b856125b7565b905060006103e8600a5485600601600001546112479190614c7b565b6112519190614b49565b90508261125e8284614b0c565b6112689190614c9a565b9695505050505050565b6000908152600460205260409020600b015461ffff80821692620100008304821692600160201b900490911690565b600a5481565b60095481565b600260035414156112d05760405162461bcd60e51b815260040161082590614860565b60026003908155600083815260046020526040902090600a82015460ff16600d81111561130d57634e487b7160e01b600052602160045260246000fd5b148061133f57506008600a82015460ff16600d81111561133d57634e487b7160e01b600052602160045260246000fd5b145b61135b5760405162461bcd60e51b8152600401610825906145e1565b60006113668461356a565b60078301549091506001600160a01b031680611380573493505b60018301546000611390876125b7565b600b86015490915060009061ffff166113a98684614c7b565b6113b39190614b49565b9050806113c08885614b0c565b10156113de5760405162461bcd60e51b8152600401610825906146ec565b6113e7886135c6565b506000816113f58885614b0c565b111561141357816114068885614b0c565b6114109190614c9a565b90505b61141d8188614c9a565b96506001600160a01b0384166114c35780156114445761144461143e613281565b82613375565b600754600b8701546040516302344afb60e61b81526001600160a01b0390921691638d12bec0918a9161148c9189918491600160201b900461ffff169060009060040161404e565b6000604051808303818588803b1580156114a557600080fd5b505af11580156114b9573d6000803e3d6000fd5b5050505050611550565b6114d6846114cf613281565b308a613285565b600754600b8701546040516302344afb60e61b81526001600160a01b0390921691638d12bec09161151d9188918c91600160201b90910461ffff169060009060040161404e565b600060405180830381600087803b15801561153757600080fd5b505af115801561154b573d6000803e3d6000fd5b505050505b868660010160008282546115649190614b0c565b9091555050600b860154600187015460009184916115869161ffff1690614c7b565b6115909190614b49565b6005880154909150600160a81b900460ff168111156115c45760058701805460ff60a81b1916600160a81b60ff8416021790555b6008600a88015460ff16600d8111156115ed57634e487b7160e01b600052602160045260246000fd5b141561160357600a8701805460ff191660031790555b8261160e8986614b0c565b141561166e57600a8701805460ff1916600417905561162b613281565b60058801546001600160a01b03908116911614801561166057506005870154600160a01b900460ff1615806116605750600954155b1561166e5761166e89612ecd565b887f337875b31ca148911f20ebb44d810f124d810dd362ca3065c8591e09b3fb73f533878b6040516116a293929190613fcc565b60405180910390a25050600160035550505050505050565b6224ea0081565b6116c9613281565b6001546001600160a01b039081169116146116f65760405162461bcd60e51b815260040161082590614564565b6007546117109082906001600160a01b03166000196136b7565b50565b6000828152600460205260408120600c0180548291908490811061174757634e487b7160e01b600052603260045260246000fd5b600091825260208083209091015486835260049091526040909120600d0180546001600160a01b039092169350908490811061179357634e487b7160e01b600052603260045260246000fd5b906000526020600020015490509250929050565b6117af613281565b6001546001600160a01b039081169116146117dc5760405162461bcd60e51b815260040161082590614564565b6117e5816111f0565b156118025760405162461bcd60e51b8152600401610825906140cc565b6001600160a01b038116600081815260026020526040808220805460ff191660011790555133917f99ad91c72e4fcc0a37d0481b982aec5c0c78491d30d39e65338bec15fa9cc4b791a350565b611857613281565b6001600160a01b0316611868611ae8565b6001600160a01b031614806118a2575060026000611884613281565b6001600160a01b0316815260208101919091526040016000205460ff165b6118be5760405162461bcd60e51b815260040161082590614618565b600080546040516001600160a01b03909116907f8be0079c531659141344cd1fd0a4f28419497f9722a3daafe3b4186f6b6457e0908390a3600080546001600160a01b0319169055565b6002600354141561192b5760405162461bcd60e51b815260040161082590614860565b6002600355816000805b82811015611a1b57600086868381811061195f57634e487b7160e01b600052603260045260246000fd5b602090810292909201356000818152600490935260409092206007810154929350916001600160a01b03888116911614905080156119c25750600a8082015460ff16600d8111156119c057634e487b7160e01b600052602160045260246000fd5b145b80156119e05750426212750082600301546119dd9190614b0c565b11155b15611a065760048101546119f49085614b0c565b600a8201805460ff1916600c17905593505b50508080611a1390614cb1565b915050611935565b50600854611a349084906001600160a01b03168361379d565b50506001600355505050565b6000818152600460205260408120600b810154600582015461ffff909116600160a81b90910460ff161015611aad576005810154611a8990600160a81b900460ff166001614b24565b611a999060ff166224ea00614c7b565b8160020154611aa89190614b0c565b611ad2565b600b810154611ac39061ffff166224ea00614c7b565b8160020154611ad29190614b0c565b9392505050565b6001546001600160a01b031690565b6000546001600160a01b031690565b611aff613281565b6001546001600160a01b03908116911614611b2c5760405162461bcd60e51b815260040161082590614564565b6007546117109082906001600160a01b031660006136b7565b6007546001600160a01b031681565b600090815260046020526040902060078101546006909101546001600160a01b0390911691565b6006546001600160a01b031681565b611b92613281565b6001600160a01b0316611ba3611ae8565b6001600160a01b03161480611bdd575060026000611bbf613281565b6001600160a01b0316815260208101919091526040016000205460ff165b611bf95760405162461bcd60e51b815260040161082590614618565b60026003541415611c1c5760405162461bcd60e51b815260040161082590614860565b60026003819055600084815260046020526040902090600a82015460ff16600d811115611c5957634e487b7160e01b600052602160045260246000fd5b14611c765760405162461bcd60e51b815260040161082590614136565b6001600160a01b038316611c9c5760405162461bcd60e51b81526004016108259061476a565b8115611eb257600c81015460005b81811015611d8057611d6e83600c018281548110611cd857634e487b7160e01b600052603260045260246000fd5b9060005260206000200160009054906101000a90046001600160a01b0316863086600e018581548110611d1b57634e487b7160e01b600052603260045260246000fd5b90600052602060002090602091828204019190069054906101000a900460ff1687600d018681548110611d5e57634e487b7160e01b600052603260045260246000fd5b9060005260206000200154613185565b80611d7881614cb1565b915050611caa565b50600a8201805460ff19166003179055426002830155600982015460088301546001600160a01b039091169081611e3057600754600b8501546040516302344afb60e61b81526001600160a01b0390921691638d12bec0918491611df99187918491600160201b900461ffff169060019060040161404e565b6000604051808303818588803b158015611e1257600080fd5b505af1158015611e26573d6000803e3d6000fd5b5050505050611eaa565b600754600b8501546040516302344afb60e61b81526001600160a01b0390921691638d12bec091611e779186918691600160201b90910461ffff169060019060040161404e565b600060405180830381600087803b158015611e9157600080fd5b505af1158015611ea5573d6000803e3d6000fd5b505050505b505050612038565b600a8101805460ff1916600690811790915560078201548254918301546001600160a01b0390911691600091611ee89190614b0c565b90506001600160a01b038216611fb25780341015611f185760405162461bcd60e51b8152600401610825906145aa565b80341115611f3357611f3385611f2e8334614c9a565b613375565b600754600b8401546040516302344afb60e61b81526001600160a01b0390921691638d12bec0918491611f7b9187918491600160201b900461ffff169060019060040161404e565b6000604051808303818588803b158015611f9457600080fd5b505af1158015611fa8573d6000803e3d6000fd5b505050505061202c565b600754600b8401546040516302344afb60e61b81526001600160a01b0390921691638d12bec091611ff99186918691600160201b90910461ffff169060019060040161404e565b600060405180830381600087803b15801561201357600080fd5b505af1158015612027573d6000803e3d6000fd5b505050505b61203586613535565b50505b826001600160a01b0316847f7aaf993782070c73bb2987e6cd8e60d71f407e727a8c44101a341680260ff5008460405161207291906140ac565b60405180910390a3505060016003555050565b7f000000000000000000000000000000000000000000000000000000000000000081565b600090815260046020526040902060098101546008909101546001600160a01b0390911691565b63bc197c8160e01b95945050505050565b600260035414156121045760405162461bcd60e51b815260040161082590614860565b6002600355600081815260046020526040902061211f613281565b60058201546001600160a01b03908116911614801561216457506001600a82015460ff16600d81111561216257634e487b7160e01b600052602160045260246000fd5b145b6121805760405162461bcd60e51b81526004016108259061479a565b600a8101805460ff1916600717905561219882613535565b817fd7c51777aa8fac36ec01ee3c9f7e62a08837a6f6074d0d02d94ce108b3ae93116121c2613281565b6040516121cf9190613fb8565b60405180910390a250506001600355565b600260035414156122035760405162461bcd60e51b815260040161082590614860565b60026003556006546001600160a01b031661221c613281565b6001600160a01b0316146122425760405162461bcd60e51b81526004016108259061479a565b60008281526004602052604090206009600a82015460ff16600d81111561227957634e487b7160e01b600052602160045260246000fd5b146122965760405162461bcd60e51b8152600401610825906144e2565b60078101546001600160a01b031680156122b057826122b2565b345b925060006122bf8561120e565b90508084116122ce57836122d0565b805b90506001600160a01b03821661235f57600754600b8401546040516302344afb60e61b81526001600160a01b0390921691638d12bec09184916123289187918491600160201b900461ffff169060009060040161404e565b6000604051808303818588803b15801561234157600080fd5b505af1158015612355573d6000803e3d6000fd5b50505050506123ec565b6123728261236b613281565b3087613285565b600754600b8401546040516302344afb60e61b81526001600160a01b0390921691638d12bec0916123b99186918691600160201b90910461ffff169060009060040161404e565b600060405180830381600087803b1580156123d357600080fd5b505af11580156123e7573d6000803e3d6000fd5b505050505b600a838101805460ff19169091179055808411156124145761240e8185614c9a565b60048401555b42600384015560405185907fb05ced90bd7d793d66e9da2b341f252ee2aeb662ca3680be0d5e73bab4f8da679061244e90879085906149e6565b60405180910390a250506001600355505050565b61246a613281565b6001600160a01b031661247b611ae8565b6001600160a01b031614806124b5575060026000612497613281565b6001600160a01b0316815260208101919091526040016000205460ff165b6124d15760405162461bcd60e51b815260040161082590614618565b6001600160a01b038516158015906124f157506001600160a01b03821615155b801561250557506001600160a01b03811615155b6125215760405162461bcd60e51b81526004016108259061476a565b600880546001600160a01b038088166001600160a01b0319928316179092556009869055600a8590556006805485841690831617905560078054848416921691909117908190556040517f7229d407fca4e1dddfa1d0522b2690427047eb8ab00d60ced49f011bcc39a141926125a192899289928992899291169061407a565b60405180910390a15050505050565b6212750081565b6000818152600460205260408120600b810154612710906125e390600160201b900461ffff1682614ae6565b60068301546125f69161ffff1690614c7b565b611ad29190614b49565b60055481565b600260035414156126295760405162461bcd60e51b815260040161082590614860565b60026003908155600082815260046020526040902090600a82015460ff16600d81111561266657634e487b7160e01b600052602160045260246000fd5b146126835760405162461bcd60e51b8152600401610825906145e1565b4261268d83611a40565b106126aa5760405162461bcd60e51b81526004016108259061491d565b600a8101805460ff1916600817905560405182907f0789b7097e8066538cfaa1132488b132e14ba5f0c938c8b7aaf8cf40356aab0b90600090a250506001600355565b6000908152600460205260409020600c015490565b60046020818152600092835260409283902080546001820154600283015460038401549584015460058501548851808a018a526006870154815260078701546001600160a01b03908116828a01528a51808c018c526008890154815260098901548216818b0152600a8901548c51606081018e52600b909a015461ffff8082168c5262010000820481169c8c019c909c52600160201b9004909a169b89019b909b529599949893979396929582169460ff600160a01b8404811695600160a81b909404811694929391929116908c565b63f23a6e6160e01b95945050505050565b6127eb613281565b6001546001600160a01b039081169116146128185760405162461bcd60e51b815260040161082590614564565b6001600160a01b03811661283e5760405162461bcd60e51b81526004016108259061416d565b600080546040516001600160a01b03808516939216917f8be0079c531659141344cd1fd0a4f28419497f9722a3daafe3b4186f6b6457e091a3600080546001600160a01b0319166001600160a01b0392909216919091179055565b60038a1480156128a95750600284145b80156128b55750600288145b6128d15760405162461bcd60e51b8152600401610825906142f6565b60008b8b60008181106128f457634e487b7160e01b600052603260045260246000fd5b90506020020160208101906129099190613e5f565b905060008c8c600181811061292e57634e487b7160e01b600052603260045260246000fd5b90506020020160208101906129439190613e5f565b905060008d8d600281811061296857634e487b7160e01b600052603260045260246000fd5b905060200201602081019061297d9190613e5f565b905060008e8e60018181106129a257634e487b7160e01b600052603260045260246000fd5b90506020020160208101906129b79190613e5f565b61ffff16116129d85760405162461bcd60e51b8152600401610825906141b3565b60008e8e60008181106129fb57634e487b7160e01b600052603260045260246000fd5b9050602002016020810190612a109190613e5f565b61ffff1611612a315760405162461bcd60e51b815260040161082590614897565b88612a4e5760405162461bcd60e51b815260040161082590614723565b60008c8c6001818110612a7157634e487b7160e01b600052603260045260246000fd5b9050602002016020810190612a869190613adb565b905060008d8d6000818110612aab57634e487b7160e01b600052603260045260246000fd5b9050602002016020810190612ac09190613adb565b60075460405163cc16574160e01b81529192506001600160a01b03169063cc16574190612af1908490600401613fb8565b602060405180830381600087803b158015612b0b57600080fd5b505af1158015612b1f573d6000803e3d6000fd5b505050506040513d601f19601f82011682018060405250810190612b439190613e1b565b612b5f5760405162461bcd60e51b81526004016108259061427a565b6007546040516308409d7760e01b81526001600160a01b03909116906308409d7790612b8f908590600401613fb8565b602060405180830381600087803b158015612ba957600080fd5b505af1158015612bbd573d6000803e3d6000fd5b505050506040513d601f19601f82011682018060405250810190612be19190613e1b565b612bfd5760405162461bcd60e51b815260040161082590614519565b8a87148015612c0c5750855187145b612c285760405162461bcd60e51b81526004016108259061421d565b612c3260056137c5565b6000612c3e60056137ce565b905060008b8b6000818110612c6357634e487b7160e01b600052603260045260246000fd5b90506020020135905060008c8c6001818110612c8f57634e487b7160e01b600052603260045260246000fd5b60200291909101359150506001600160a01b038516612ce35780341015612cc85760405162461bcd60e51b815260040161082590614818565b80341115612cde57612cde33611f2e8334614c9a565b612cef565b612cef85610cf5613281565b8e8e60046000868152602001908152602001600020600c019190612d149291906137d2565b50612d1d613281565b60008481526004602081815260408084206005810180546001600160a01b039788166001600160a01b031991821617909155825180840184528681528b88168186019081528b88528686529051600684015551600783018054918916918316919091179055825180840184528881528c88168186019081528b8852868652905160088401555160098301805491909816911617909555805160608101825261ffff808f1682528d81168285019081528d8216938301938452958a9052939092529051600b85018054945192518416600160201b0265ffff0000000019938516620100000263ffff0000199390951661ffff1990961695909517919091169290921716919091179055612e3390600d018c8c613835565b506000838152600460209081526040909120838155600a8101805460ff191660011790558a51612e6b92600e909201918c0190613870565b50604051339084907f1e6e02c9589612d091b6d88e3f0a4af8853df1573895d33dc5bd10f27bfbc59790600090a350505050505050505050505050505050505050565b6101f481565b6001600160e01b031981166301ffc9a760e01b14919050565b600081815260046020819052604090912090600a82015460ff16600d811115612f0657634e487b7160e01b600052602160045260246000fd5b14612f235760405162461bcd60e51b8152600401610825906143fd565b6000612f2d613281565b60058301549091506001600160a01b03808316911614612f5f5760405162461bcd60e51b81526004016108259061479a565b600a8201805460ff1916600590811790915582015460ff600160a01b9091041615801590612f8f57506000600954115b156130975760007f00000000000000000000000000000000000000000000000000000000000000006001600160a01b031663313ce5676040518163ffffffff1660e01b815260040160206040518083038186803b158015612fef57600080fd5b505afa158015613003573d6000803e3d6000fd5b505050506040513d601f19601f820116820180604052508101906130279190613f24565b61303290600a614baf565b600954600585015461304e9190600160a01b900460ff16614c7b565b6130589190614c7b565b600854909150613095907f00000000000000000000000000000000000000000000000000000000000000009084906001600160a01b031684613285565b505b600c82015460005b8181101561315457600084600c0182815481106130cc57634e487b7160e01b600052603260045260246000fd5b6000918252602082200154600d870180546001600160a01b039092169350908490811061310957634e487b7160e01b600052603260045260246000fd5b9060005260206000200154905061313f82308789600e0187815481106109c157634e487b7160e01b600052603260045260246000fd5b5050808061314c90614cb1565b91505061309f565b50837f4459793bb7ed080476f037ed5016eb5366299d029547cdb92e50d4b18cf9d49283604051610d789190613fb8565b60008260018111156131a757634e487b7160e01b600052602160045260246000fd5b141561321457604051632142170760e11b81526001600160a01b038616906342842e0e906131dd90879087908690600401613fcc565b600060405180830381600087803b1580156131f757600080fd5b505af115801561320b573d6000803e3d6000fd5b5050505061327a565b604051637921219560e11b81526001600160a01b0386169063f242432a9061324790879087908690600190600401613ff0565b600060405180830381600087803b15801561326157600080fd5b505af1158015613275573d6000803e3d6000fd5b505050505b5050505050565b3390565b600080856001600160a01b03166323b872dd8686866040516024016132ac93929190613fcc565b6040516020818303038152906040529060e01b6020820180516001600160e01b0383818316178352505050506040516132e59190613f7f565b6000604051808303816000865af19150503d8060008114613322576040519150601f19603f3d011682016040523d82523d6000602084013e613327565b606091505b50915091508180156133515750805115806133515750808060200190518101906133519190613e1b565b61336d5760405162461bcd60e51b8152600401610825906147c7565b505050505050565b604080516000808252602082019092526001600160a01b03841690839060405161339f9190613f7f565b60006040518083038185875af1925050503d80600081146133dc576040519150601f19603f3d011682016040523d82523d6000602084013e6133e1565b606091505b50509050806134025760405162461bcd60e51b815260040161082590614954565b505050565b600080846001600160a01b031663a9059cbb858560405160240161342c929190614035565b6040516020818303038152906040529060e01b6020820180516001600160e01b0383818316178352505050506040516134659190613f7f565b6000604051808303816000865af19150503d80600081146134a2576040519150601f19603f3d011682016040523d82523d6000602084013e6134a7565b606091505b50915091508180156134d15750805115806134d15750808060200190518101906134d19190613e1b565b61327a5760405162461bcd60e51b81526004016108259061432d565b60008261350c5760405162461bcd60e51b8152600401610825906140f3565b8261351983612710614b0c565b6135239086614c7b565b61352d9190614b49565b949350505050565b60008181526004602052604090206009810154600882015460058301546001600160a01b03928316921661327a83828461379d565b600081815260046020526040812060020154816224ea0061358b8342614c9a565b6135959190614b49565b6000858152600460205260409020600b015490915061ffff168082116135bb57816135bd565b805b95945050505050565b60008181526004602052604090206003600a82015460ff16600d8111156135fd57634e487b7160e01b600052602160045260246000fd5b148061362f57506008600a82015460ff16600d81111561362d57634e487b7160e01b600052602160045260246000fd5b145b61364b5760405162461bcd60e51b8152600401610825906142bf565b60006136568361356a565b6005830154909150600160a81b900460ff16808211156136b15761367a8183614c9a565b600584018054601490613698908490600160a01b900460ff16614b24565b92506101000a81548160ff021916908360ff1602179055505b50505050565b600080846001600160a01b031663095ea7b385856040516024016136dc929190614035565b6040516020818303038152906040529060e01b6020820180516001600160e01b0383818316178352505050506040516137159190613f7f565b6000604051808303816000865af19150503d8060008114613752576040519150601f19603f3d011682016040523d82523d6000602084013e613757565b606091505b50915091508180156137815750805115806137815750808060200190518101906137819190613e1b565b61327a5760405162461bcd60e51b8152600401610825906146a1565b6001600160a01b0383166137ba576137b58282613375565b613402565b613402838383613407565b80546001019055565b5490565b828054828255906000526020600020908101928215613825579160200282015b828111156138255781546001600160a01b0319166001600160a01b038435161782556020909201916001909101906137f2565b50613831929150613929565b5090565b828054828255906000526020600020908101928215613825579160200282015b82811115613825578235825591602001919060010190613855565b82805482825590600052602060002090601f016020900481019282156138255791602002820160005b838211156138f357835183826101000a81548160ff021916908360018111156138d257634e487b7160e01b600052602160045260246000fd5b02179055509260200192600101602081600001049283019260010302613899565b80156139205782816101000a81549060ff02191690556001016020816000010492830192600103026138f3565b50506138319291505b5b80821115613831576000815560010161392a565b80356001600160a01b03811681146107fd57600080fd5b60008083601f840112613966578182fd5b50813567ffffffffffffffff81111561397d578182fd5b602083019150836020808302850101111561399757600080fd5b9250929050565b600082601f8301126139ae578081fd5b813560206139c36139be83614ac2565b614a98565b82815281810190858301838502870184018810156139df578586fd5b855b85811015613a09578135600281106139f7578788fd5b845292840192908401906001016139e1565b5090979650505050505050565b600082601f830112613a26578081fd5b81356020613a366139be83614ac2565b8281528181019085830183850287018401881015613a52578586fd5b855b85811015613a0957813584529284019290840190600101613a54565b600082601f830112613a80578081fd5b813567ffffffffffffffff811115613a9a57613a9a614ce2565b613aad601f8201601f1916602001614a98565b818152846020838601011115613ac1578283fd5b816020850160208301379081016020019190915292915050565b600060208284031215613aec578081fd5b611ad28261393e565b600080600080600060a08688031215613b0c578081fd5b613b158661393e565b9450613b236020870161393e565b9350604086013567ffffffffffffffff80821115613b3f578283fd5b613b4b89838a01613a16565b94506060880135915080821115613b60578283fd5b613b6c89838a01613a16565b93506080880135915080821115613b81578283fd5b50613b8e88828901613a70565b9150509295509295909350565b60008060008060808587031215613bb0578384fd5b613bb98561393e565b9350613bc76020860161393e565b925060408501359150606085013567ffffffffffffffff811115613be9578182fd5b613bf587828801613a70565b91505092959194509250565b600080600080600060a08688031215613c18578081fd5b613c218661393e565b9450613c2f6020870161393e565b93506040860135925060608601359150608086013567ffffffffffffffff811115613c58578182fd5b613b8e88828901613a70565b600080600080600060a08688031215613c7b578081fd5b613c848661393e565b94506020860135935060408601359250613ca06060870161393e565b9150613cae6080870161393e565b90509295509295909350565b600080600080600080600080600080600060c08c8e031215613cda578889fd5b67ffffffffffffffff808d351115613cf057898afd5b613cfd8e8e358f01613955565b909c509a5060208d0135811015613d1257898afd5b613d228e60208f01358f01613955565b909a50985060408d0135811015613d37578687fd5b613d478e60408f01358f01613955565b909850965060608d0135811015613d5c578586fd5b613d6c8e60608f01358f01613955565b909650945060808d0135811015613d81578384fd5b613d918e60808f01358f01613955565b909450925060a08d0135811015613da6578182fd5b50613db78d60a08e01358e0161399e565b90509295989b509295989b9093969950565b600080600060408486031215613ddd578081fd5b833567ffffffffffffffff811115613df3578182fd5b613dff86828701613955565b9094509250613e1290506020850161393e565b90509250925092565b600060208284031215613e2c578081fd5b8151611ad281614cf8565b600060208284031215613e48578081fd5b81356001600160e01b031981168114611ad2578182fd5b600060208284031215613e70578081fd5b813561ffff81168114611ad2578182fd5b600060208284031215613e92578081fd5b5035919050565b600080600060608486031215613ead578081fd5b83359250613ebd6020850161393e565b91506040840135613ecd81614cf8565b809150509250925092565b60008060408385031215613eea578182fd5b50508035926020909101359150565b600080600060608486031215613f0d578081fd5b8335925060208401359150613e126040850161393e565b600060208284031215613f35578081fd5b815160ff81168114611ad2578182fd5b805182526020908101516001600160a01b0316910152565b805161ffff908116835260208083015182169084015260409182015116910152565b60008251815b81811015613f9f5760208186018101518583015201613f85565b81811115613fad5782828501525b509190910192915050565b6001600160a01b0391909116815260200190565b6001600160a01b039384168152919092166020820152604081019190915260600190565b6001600160a01b0394851681529290931660208301526040820152606081019190915260a060808201819052600490820152630307830360e41b60c082015260e00190565b6001600160a01b03929092168252602082015260400190565b6001600160a01b03949094168452602084019290925261ffff1660408301521515606082015260800190565b6001600160a01b0395861681526020810194909452604084019290925283166060830152909116608082015260a00190565b901515815260200190565b6001600160e01b031991909116815260200190565b6020808252600d908201526c20b63932b0b23c9030b236b4b760991b604082015260600190565b60208082526023908201527f54726962654f6e6548656c7065723a204c54562073686f756c64206e6f74206260408201526206520360ec1b606082015260800190565b6020808252601b908201527f54726962654f6e653a204e6f7420617070726f766564206c6f616e0000000000604082015260600190565b60208082526026908201527f4f776e61626c653a206e6577206f776e657220697320746865207a65726f206160408201526564647265737360d01b606082015260800190565b6020808252818101527f54726962654f6e653a204c54562073686f756c64206e6f74206265205a45524f604082015260600190565b6020808252818101527f54726962654f6e653a204e6f20616d6f756e7420746f2067697665206261636b604082015260600190565b6020808252603d908201527f54726962654f6e653a204e46542070726f766964656420696e666f726d61746960408201527f6f6e7320617265206d697373696e67206f7220696e636f6d706c657465000000606082015260800190565b60208082526025908201527f54726962654f6e653a204c6f616e206173736574206973206e6f7420617661696040820152646c61626c6560d81b606082015260800190565b6020808252601a908201527f54726962654f6e653a204e6f742061637469766564206c6f616e000000000000604082015260600190565b6020808252601b908201527f54726962654f6e653a20496e76616c696420706172616d657465720000000000604082015260600190565b6020808252602d908201527f54726962654f6e6548656c7065723a3a736166655472616e736665723a20747260408201526c185b9cd9995c8819985a5b1959609a1b606082015260800190565b60208082526019908201527f54726962654f6e653a20496e76616c6964207265717565737400000000000000604082015260600190565b6020808252602c908201527f4f776e61626c653a206e6577207375706572206f776e6572206973207468652060408201526b7a65726f206164647265737360a01b606082015260800190565b60208082526035908201527f54726962654f6e653a20496e76616c696420737461747573202d20796f752068604082015274617665207374696c6c206465627420746f2070617960581b606082015260800190565b6020808252601d908201527f54726962654f6e653a204578636565646564206c6f616e206c696d6974000000604082015260600190565b6020808252601390820152722a3934b132a7b7329d102a34b6b29037bb32b960691b604082015260600190565b6020808252601290820152712a3934b127b7329d102337b93134b23232b760711b604082015260600190565b60208082526018908201527f54726962654f6e653a20696e76616c6964207374617475730000000000000000604082015260600190565b6020808252602b908201527f54726962654f6e653a20436f6c6c61746572616c206173736574206973206e6f60408201526a7420617661696c61626c6560a81b606082015260800190565b60208082526026908201527f4f776e61626c653a2063616c6c6572206973206e6f74207468652073757065726040820152651037bbb732b960d11b606082015260800190565b6020808252601f908201527f54726962654f6e653a204c657373207468616e206c6f616e20616d6f756e7400604082015260600190565b60208082526018908201527f54726962654f6e653a20496e76616c6964207374617475730000000000000000604082015260600190565b60208082526032908201527f4f776e61626c653a2063616c6c6572206973206e65697468657220746865206f6040820152713bb732b9103737b9103a34329030b236b4b760711b606082015260800190565b60208082526018908201527f54726962654f6e653a20496e76616c696420616d6f756e740000000000000000604082015260600190565b6020808252602b908201527f5472616e7366657248656c7065723a3a73616665417070726f76653a2061707060408201526a1c9bdd994819985a5b195960aa1b606082015260800190565b6020808252601d908201527f54726962654f6e653a20496e73756666696369656e7420416d6f756e74000000604082015260600190565b60208082526027908201527f54726962654f6e653a204c6f616e206d7573742068617665206174206c6561736040820152661d080c4813919560ca1b606082015260800190565b60208082526016908201527554726962654f6e653a205a45524f206164647265737360501b604082015260600190565b6020808252601390820152722a3934b132a7b7329d102337b93134b23232b760691b604082015260600190565b60208082526031908201527f54726962654f6e6548656c7065723a3a7472616e7366657246726f6d3a207472604082015270185b9cd9995c919c9bdb4819985a5b1959607a1b606082015260800190565b60208082526028908201527f54726962654f6e653a20496e73756666696369656e7420636f6c6c61746572616040820152671b08185b5bdd5b9d60c21b606082015260800190565b6020808252601f908201527f5265656e7472616e637947756172643a207265656e7472616e742063616c6c00604082015260600190565b6020808252602f908201527f54726962654f6e653a204c6f616e206d7573742068617665206174206c65617360408201526e1d080c481a5b9cdd185b1b1b595b9d608a1b606082015260800190565b60208082526019908201527f546869732061646472657373206973206e6f742061646d696e00000000000000604082015260600190565b6020808252601f908201527f54726962654f6e653a204e6f74206f7665726475656420646174652079657400604082015260600190565b60208082526034908201527f54726962654f6e6548656c7065723a3a736166655472616e736665724554483a60408201527308115512081d1c985b9cd9995c8819985a5b195960621b606082015260800190565b61ffff93841681529183166020830152909116604082015260600190565b90815260200190565b9182526001600160a01b0316602082015260400190565b918252602082015260400190565b8c8152602081018c9052604081018b9052606081018a9052608081018990526001600160a01b03881660a082015260ff87811660c0830152861660e08201526102008101614a46610100830187613f45565b614a54610140830186613f45565b600e8410614a7257634e487b7160e01b600052602160045260246000fd5b83610180830152614a876101a0830184613f5d565b9d9c50505050505050505050505050565b60405181810167ffffffffffffffff81118282101715614aba57614aba614ce2565b604052919050565b600067ffffffffffffffff821115614adc57614adc614ce2565b5060209081020190565b600061ffff808316818516808303821115614b0357614b03614ccc565b01949350505050565b60008219821115614b1f57614b1f614ccc565b500190565b600060ff821660ff84168060ff03821115614b4157614b41614ccc565b019392505050565b600082614b6457634e487b7160e01b81526012600452602481fd5b500490565b80825b6001808611614b7b5750614ba6565b818704821115614b8d57614b8d614ccc565b80861615614b9a57918102915b9490941c938002614b6c565b94509492505050565b6000611ad260001960ff851684600082614bcb57506001611ad2565b81614bd857506000611ad2565b8160018114614bee5760028114614bf857614c25565b6001915050611ad2565b60ff841115614c0957614c09614ccc565b6001841b915084821115614c1f57614c1f614ccc565b50611ad2565b5060208310610133831016604e8410600b8410161715614c53575081810a83811115611aa857611aa8614ccc565b614c608484846001614b69565b808604821115614c7257614c72614ccc565b02949350505050565b6000816000190483118215151615614c9557614c95614ccc565b500290565b600082821015614cac57614cac614ccc565b500390565b6000600019821415614cc557614cc5614ccc565b5060010190565b634e487b7160e01b600052601160045260246000fd5b634e487b7160e01b600052604160045260246000fd5b801515811461171057600080fdfea2646970667358221220019cc8307b9474e1d5093e9a994f2557b0563fb26f86b118c4d0d0b5537651da64736f6c634300080000338be0079c531659141344cd1fd0a4f28419497f9722a3daafe3b4186f6b6457e0",
  "devdoc": {
    "kind": "dev",
    "methods": {
      "createLoan(uint16[],address[],address[],uint256[],uint256[],uint8[])": {
        "details": "_fundAmount shoud be amount in loan currency, and _collateralAmount should be in collateral currency"
      },
      "getBackFund(uint256)": {
        "details": "User can get back the rest money through this function, but he should pay late fee."
      },
      "lockRestAmount(uint256[],address)": {
        "details": "if user does not want to get back rest of money due to some reasons, such as gas fee... we will transfer rest money to our fee address (after 14 days notification). For saving gas fee, we will transfer once for the one kind of token."
      },
      "onERC721Received(address,address,uint256,bytes)": {
        "details": "See {IERC721Receiver-onERC721Received}. Always returns `IERC721Receiver.onERC721Received.selector`."
      },
      "owner()": {
        "details": "Returns the address of the current owner."
      },
      "postLiquidation(uint256,uint256)": {
        "details": "after sold NFT set in market place, and give that fund back to TribeOne Only sales manager can do this"
      },
      "relayNFT(uint256,address,bool)": {
        "details": "_loanId: loanId, _accepted: order to Partner is succeeded or not loan will be back to TribeOne if accepted is false"
      },
      "renounceOwnership()": {
        "details": "Leaves the contract without owner. It will not be possible to call `onlyOwner` functions anymore. Can only be called by the current owner. NOTE: Renouncing ownership will leave the contract without an owner, thereby removing any functionality that is only available to the owner."
      },
      "supportsInterface(bytes4)": {
        "details": "See {IERC165-supportsInterface}."
      },
      "totalDebt(uint256)": {
        "details": "shows loan + interest"
      },
      "transferOwnership(address)": {
        "details": "Transfers ownership of the contract to a new account (`newOwner`). Can only be called by the current owner."
      }
    },
    "stateVariables": {
      "salesManager": {
        "details": "It's for only testnet"
      }
    },
    "version": 1
  },
  "userdoc": {
    "kind": "user",
    "methods": {},
    "version": 1
  },
  "storageLayout": {
    "storage": [
      {
        "astId": 8048,
        "contract": "contracts/TribeOne.sol:TribeOne",
        "label": "_owner",
        "offset": 0,
        "slot": "0",
        "type": "t_address"
      },
      {
        "astId": 8050,
        "contract": "contracts/TribeOne.sol:TribeOne",
        "label": "_superOwner",
        "offset": 0,
        "slot": "1",
        "type": "t_address"
      },
      {
        "astId": 8054,
        "contract": "contracts/TribeOne.sol:TribeOne",
        "label": "admins",
        "offset": 0,
        "slot": "2",
        "type": "t_mapping(t_address,t_bool)"
      },
      {
        "astId": 120,
        "contract": "contracts/TribeOne.sol:TribeOne",
        "label": "_status",
        "offset": 0,
        "slot": "3",
        "type": "t_uint256"
      },
      {
        "astId": 5610,
        "contract": "contracts/TribeOne.sol:TribeOne",
        "label": "loans",
        "offset": 0,
        "slot": "4",
        "type": "t_mapping(t_uint256,t_struct(Loan)5605_storage)"
      },
      {
        "astId": 5613,
        "contract": "contracts/TribeOne.sol:TribeOne",
        "label": "loanIds",
        "offset": 0,
        "slot": "5",
        "type": "t_struct(Counter)3755_storage"
      },
      {
        "astId": 5625,
        "contract": "contracts/TribeOne.sol:TribeOne",
        "label": "salesManager",
        "offset": 0,
        "slot": "6",
        "type": "t_address"
      },
      {
        "astId": 5627,
        "contract": "contracts/TribeOne.sol:TribeOne",
        "label": "assetManager",
        "offset": 0,
        "slot": "7",
        "type": "t_address"
      },
      {
        "astId": 5629,
        "contract": "contracts/TribeOne.sol:TribeOne",
        "label": "feeTo",
        "offset": 0,
        "slot": "8",
        "type": "t_address"
      },
      {
        "astId": 5633,
        "contract": "contracts/TribeOne.sol:TribeOne",
        "label": "lateFee",
        "offset": 0,
        "slot": "9",
        "type": "t_uint256"
      },
      {
        "astId": 5635,
        "contract": "contracts/TribeOne.sol:TribeOne",
        "label": "penaltyFee",
        "offset": 0,
        "slot": "10",
        "type": "t_uint256"
      }
    ],
    "types": {
      "t_address": {
        "encoding": "inplace",
        "label": "address",
        "numberOfBytes": "20"
      },
      "t_array(t_address)dyn_storage": {
        "base": "t_address",
        "encoding": "dynamic_array",
        "label": "address[]",
        "numberOfBytes": "32"
      },
      "t_array(t_enum(TokenType)8304)dyn_storage": {
        "base": "t_enum(TokenType)8304",
        "encoding": "dynamic_array",
        "label": "enum TribeOneHelper.TokenType[]",
        "numberOfBytes": "32"
      },
      "t_array(t_uint256)dyn_storage": {
        "base": "t_uint256",
        "encoding": "dynamic_array",
        "label": "uint256[]",
        "numberOfBytes": "32"
      },
      "t_bool": {
        "encoding": "inplace",
        "label": "bool",
        "numberOfBytes": "1"
      },
      "t_enum(Status)5554": {
        "encoding": "inplace",
        "label": "enum TribeOne.Status",
        "numberOfBytes": "1"
      },
      "t_enum(TokenType)8304": {
        "encoding": "inplace",
        "label": "enum TribeOneHelper.TokenType",
        "numberOfBytes": "1"
      },
      "t_mapping(t_address,t_bool)": {
        "encoding": "mapping",
        "key": "t_address",
        "label": "mapping(address => bool)",
        "numberOfBytes": "32",
        "value": "t_bool"
      },
      "t_mapping(t_uint256,t_struct(Loan)5605_storage)": {
        "encoding": "mapping",
        "key": "t_uint256",
        "label": "mapping(uint256 => struct TribeOne.Loan)",
        "numberOfBytes": "32",
        "value": "t_struct(Loan)5605_storage"
      },
      "t_struct(Asset)5559_storage": {
        "encoding": "inplace",
        "label": "struct TribeOne.Asset",
        "members": [
          {
            "astId": 5556,
            "contract": "contracts/TribeOne.sol:TribeOne",
            "label": "amount",
            "offset": 0,
            "slot": "0",
            "type": "t_uint256"
          },
          {
            "astId": 5558,
            "contract": "contracts/TribeOne.sol:TribeOne",
            "label": "currency",
            "offset": 0,
            "slot": "1",
            "type": "t_address"
          }
        ],
        "numberOfBytes": "64"
      },
      "t_struct(Counter)3755_storage": {
        "encoding": "inplace",
        "label": "struct Counters.Counter",
        "members": [
          {
            "astId": 3754,
            "contract": "contracts/TribeOne.sol:TribeOne",
            "label": "_value",
            "offset": 0,
            "slot": "0",
            "type": "t_uint256"
          }
        ],
        "numberOfBytes": "32"
      },
      "t_struct(Loan)5605_storage": {
        "encoding": "inplace",
        "label": "struct TribeOne.Loan",
        "members": [
          {
            "astId": 5568,
            "contract": "contracts/TribeOne.sol:TribeOne",
            "label": "fundAmount",
            "offset": 0,
            "slot": "0",
            "type": "t_uint256"
          },
          {
            "astId": 5570,
            "contract": "contracts/TribeOne.sol:TribeOne",
            "label": "paidAmount",
            "offset": 0,
            "slot": "1",
            "type": "t_uint256"
          },
          {
            "astId": 5572,
            "contract": "contracts/TribeOne.sol:TribeOne",
            "label": "loanStart",
            "offset": 0,
            "slot": "2",
            "type": "t_uint256"
          },
          {
            "astId": 5574,
            "contract": "contracts/TribeOne.sol:TribeOne",
            "label": "postTime",
            "offset": 0,
            "slot": "3",
            "type": "t_uint256"
          },
          {
            "astId": 5576,
            "contract": "contracts/TribeOne.sol:TribeOne",
            "label": "restAmount",
            "offset": 0,
            "slot": "4",
            "type": "t_uint256"
          },
          {
            "astId": 5578,
            "contract": "contracts/TribeOne.sol:TribeOne",
            "label": "borrower",
            "offset": 0,
            "slot": "5",
            "type": "t_address"
          },
          {
            "astId": 5580,
            "contract": "contracts/TribeOne.sol:TribeOne",
            "label": "nrOfPenalty",
            "offset": 20,
            "slot": "5",
            "type": "t_uint8"
          },
          {
            "astId": 5582,
            "contract": "contracts/TribeOne.sol:TribeOne",
            "label": "passedTenors",
            "offset": 21,
            "slot": "5",
            "type": "t_uint8"
          },
          {
            "astId": 5585,
            "contract": "contracts/TribeOne.sol:TribeOne",
            "label": "loanAsset",
            "offset": 0,
            "slot": "6",
            "type": "t_struct(Asset)5559_storage"
          },
          {
            "astId": 5588,
            "contract": "contracts/TribeOne.sol:TribeOne",
            "label": "collateralAsset",
            "offset": 0,
            "slot": "8",
            "type": "t_struct(Asset)5559_storage"
          },
          {
            "astId": 5591,
            "contract": "contracts/TribeOne.sol:TribeOne",
            "label": "status",
            "offset": 0,
            "slot": "10",
            "type": "t_enum(Status)5554"
          },
          {
            "astId": 5594,
            "contract": "contracts/TribeOne.sol:TribeOne",
            "label": "loanRules",
            "offset": 0,
            "slot": "11",
            "type": "t_struct(LoanRules)5566_storage"
          },
          {
            "astId": 5597,
            "contract": "contracts/TribeOne.sol:TribeOne",
            "label": "nftAddressArray",
            "offset": 0,
            "slot": "12",
            "type": "t_array(t_address)dyn_storage"
          },
          {
            "astId": 5600,
            "contract": "contracts/TribeOne.sol:TribeOne",
            "label": "nftTokenIdArray",
            "offset": 0,
            "slot": "13",
            "type": "t_array(t_uint256)dyn_storage"
          },
          {
            "astId": 5604,
            "contract": "contracts/TribeOne.sol:TribeOne",
            "label": "nftTokenTypeArray",
            "offset": 0,
            "slot": "14",
            "type": "t_array(t_enum(TokenType)8304)dyn_storage"
          }
        ],
        "numberOfBytes": "480"
      },
      "t_struct(LoanRules)5566_storage": {
        "encoding": "inplace",
        "label": "struct TribeOne.LoanRules",
        "members": [
          {
            "astId": 5561,
            "contract": "contracts/TribeOne.sol:TribeOne",
            "label": "tenor",
            "offset": 0,
            "slot": "0",
            "type": "t_uint16"
          },
          {
            "astId": 5563,
            "contract": "contracts/TribeOne.sol:TribeOne",
            "label": "LTV",
            "offset": 2,
            "slot": "0",
            "type": "t_uint16"
          },
          {
            "astId": 5565,
            "contract": "contracts/TribeOne.sol:TribeOne",
            "label": "interest",
            "offset": 4,
            "slot": "0",
            "type": "t_uint16"
          }
        ],
        "numberOfBytes": "32"
      },
      "t_uint16": {
        "encoding": "inplace",
        "label": "uint16",
        "numberOfBytes": "2"
      },
      "t_uint256": {
        "encoding": "inplace",
        "label": "uint256",
        "numberOfBytes": "32"
      },
      "t_uint8": {
        "encoding": "inplace",
        "label": "uint8",
        "numberOfBytes": "1"
      }
    }
  }
}